:100000000C9461000C947E000C947E000C947E0095
:100010000C947E000C947E000C947E000C947E0068
:100020000C947E000C947E000C947E000C947E0058
:100030000C947E000C947E000C947E000C947E0048
:100040000C94F1010C947E000C947E000C947E00C4
:100050000C947E000C947E000C947E000C947E0028
:100060000C947E000C947E0000000000230026000B
:10007000290000000008000201000003040700003E
:1000800000000000000000000000250028002B00F8
:1000900000000000240027002A00040404040404D3
:1000A0000404020202020202030303030303010227
:1000B00004081020408001020408102001020408F6
:1000C000102011241FBECFEFD8E0DEBFCDBF11E05E
:1000D000A0E0B1E0E8ECF6E002C005900D92A2329B
:1000E000B107D9F721E0A2E2B1E001C01D92A73328
:1000F000B207E1F70E943B020C9462030C940000EB
:1001000090E0FC01E255FF4F2491FC01E656FF4FC1
:100110008491882399F090E0880F991FFC01E057A3
:10012000FF4FA591B491FC01EA57FF4F859194913F
:100130008FB7F894EC91E22BEC938FBF0895833046
:1001400081F028F4813099F08230A1F00895873051
:10015000A9F08830B9F08430D1F4809180008F7D8F
:1001600003C0809180008F7780938000089584B5CC
:100170008F7702C084B58F7D84BD08958091B000D3
:100180008F7703C08091B0008F7D8093B000089579
:10019000CF93DF93282F30E0F901EE58FF4F849181
:1001A000F901E255FF4FD491F901E656FF4FC49192
:1001B000CC2391F081110E949F00EC2FF0E0EE0F14
:1001C000FF1FE859FF4FA591B491EC91ED2381E019
:1001D00090E021F480E002C080E090E0DF91CF91D8
:1001E00008951F93CF93DF93282F30E0F901EE5845
:1001F000FF4F8491F901E255FF4FD491F901E65682
:10020000FF4FC491CC23C9F0162F81110E949F008B
:10021000EC2FF0E0EE0FFF1FEA57FF4FA591B491CE
:100220008FB7F894111105C09C91ED2FE095E9234B
:1002300002C0EC91ED2BEC938FBFDF91CF911F911A
:1002400008953FB7F8948091270190912801A091DB
:100250002901B0912A0126B5A89B05C02F3F19F0AE
:100260000196A11DB11D3FBFBA2FA92F982F882736
:10027000820F911DA11DB11DBC01CD0142E0660F91
:10028000771F881F991F4A95D1F708954F925F9263
:100290006F927F928F929F92AF92BF92CF92DF9296
:1002A000EF92FF920F931F93CF93DF93CDB7DEB7FB
:1002B00028970FB6F894DEBF0FBECDBF80509F4F7A
:1002C000FC01808190E09A838983FB01E050FF4F1D
:1002D000808190E09C838B83FA01E050FF4F808106
:1002E00090E09E838D83F901E050FF4F808190E084
:1002F00098878F830AE011E0CE0101967C0182E1AC
:10030000A82E81E0B82EC12CD12CF5018081F2E01D
:10031000AF0EB11CF701608171810C2C02C0759584
:1003200067950A94E2F761707727F1E06F270E94E2
:10033000F1002FEFC21AD20A88E0C816D10429F7BB
:10034000F801D0800E5F1F4F61E08D2D0E94F100FB
:100350000E9421014B015C0122E0422E512C612CB4
:10036000712C0E942101DC01CB0188199909AA098D
:10037000BB09883E9340A105B10598F3F8EE8F0EB6
:10038000F3E09F1EA11CB11C4A944528462847282B
:1003900029F0412C512C32014394E3CF60E08D2DA4
:1003A0000E94F100F2E0EF0EF11C21E00231120791
:1003B00009F0A5CF28960FB6F894DEBF0FBECDBFCB
:1003C000DF91CF911F910F91FF90EF90DF90CF9031
:1003D000BF90AF909F908F907F906F905F904F9065
:1003E00008951F920F920FB60F9211242F933F93EF
:1003F0008F939F93AF93BF9380912301909124019A
:10040000A0912501B09126013091220123E0230F14
:100410002D3720F40196A11DB11D05C026E8230F3C
:100420000296A11DB11D2093220180932301909378
:100430002401A0932501B09326018091270190917A
:100440002801A0912901B0912A010196A11DB11D99
:100450008093270190932801A0932901B0932A014A
:10046000BF91AF919F918F913F912F910F900FBEB0
:100470000F901F901895789484B5826084BD84B5E0
:10048000816084BD85B5826085BD85B5816085BD8F
:1004900080916E00816080936E0010928100809147
:1004A00081008260809381008091810081608093CF
:1004B0008100809180008160809380008091B100F4
:1004C00084608093B1008091B00081608093B0001F
:1004D00080917A00846080937A0080917A008260B3
:1004E00080937A0080917A00816080937A00809175
:1004F0007A00806880937A001092C100C2E1D1E056
:10050000888122960E94800021E0C232D207C1F782
:1005100085E00E94800084E00E94800083E00E94C9
:10052000800082E00E948000CAE0D0E080E0E82EF7
:1005300080E0F82E8FE00E94C800892B09F58FE03B
:100540000E94C800892B99F4209135013091360121
:100550004091330150913401609131017091320129
:1005600080912F01909130010E944601E8CF809147
:100570002B0190912C01019690932C0180932B01DB
:1005800080912B0190912C018436910524F01092DA
:100590002C0110922B01C0902B01D0902C018EE0E9
:1005A0000E94C800892B09F58EE00E94C800892BA3
:1005B00099F42091350130913601409133015091E9
:1005C0003401609131017091320180912F0190913D
:1005D00030010E944601E8CF80912D0190912E01BB
:1005E000019690932E0180932D0180912D01909181
:1005F0002E018436910524F010922E0110922D01C7
:1006000020912D0130912E01C901BE010E943A03B3
:100610008B017093300160932F01C601BE010E94CF
:100620003A03AB01709334016093330166EF6003CA
:10063000F001619FF00D1124B9016E0F7F1F7093BF
:1006400032016093310126EF2403C001259F900DF4
:1006500011249C012C0D3D1D309336012093350152
:10066000C8010E944601E114F10409F463CF0E941D
:10067000000060CF97FB072E16F4009407D077FD9B
:1006800009D00E944E0307FC05D03EF49095819559
:100690009F4F0895709561957F4F0895AA1BBB1BCE
:1006A00051E107C0AA1FBB1FA617B70710F0A61B72
:1006B000B70B881F991F5A95A9F780959095BC0193
:0806C000CD010895F894FFCF6D
:1006C800FC60DAF266B63EE0FEE6050004000300D0
:1006D800020006000D000C000B000A0009000800CB
:0206E800070009
:107E0000112484B714BE81FFF0D085E080938100F7
:107E100082E08093C00088E18093C10086E0809377
:107E2000C20080E18093C4008EE0C9D0259A86E02C
:107E300020E33CEF91E0309385002093840096BBD3
:107E4000B09BFECF1D9AA8958150A9F7CC24DD24C4
:107E500088248394B5E0AB2EA1E19A2EF3E0BF2EE7
:107E6000A2D0813461F49FD0082FAFD0023811F036
:107E7000013811F484E001C083E08DD089C08234E0
:107E800011F484E103C0853419F485E0A6D080C0E4
:107E9000853579F488D0E82EFF2485D0082F10E0AE
:107EA000102F00270E291F29000F111F8ED06801E7
:107EB0006FC0863521F484E090D080E0DECF843638
:107EC00009F040C070D06FD0082F6DD080E0C81688
:107ED00080E7D80618F4F601B7BEE895C0E0D1E017
:107EE00062D089930C17E1F7F0E0CF16F0E7DF06D8
:107EF00018F0F601B7BEE89568D007B600FCFDCFD4
:107F0000A601A0E0B1E02C9130E011968C91119780
:107F100090E0982F8827822B932B1296FA010C0160
:107F200087BEE89511244E5F5F4FF1E0A038BF0790
:107F300051F7F601A7BEE89507B600FCFDCF97BE46
:107F4000E89526C08437B1F42ED02DD0F82E2BD052
:107F50003CD0F601EF2C8F010F5F1F4F84911BD097
:107F6000EA94F801C1F70894C11CD11CFA94CF0C13
:107F7000D11C0EC0853739F428D08EE10CD085E9AC
:107F80000AD08FE07ACF813511F488E018D01DD067
:107F900080E101D065CF982F8091C00085FFFCCF94
:107FA0009093C60008958091C00087FFFCCF809118
:107FB000C00084FD01C0A8958091C6000895E0E648
:107FC000F0E098E1908380830895EDDF803219F02E
:107FD00088E0F5DFFFCF84E1DECF1F93182FE3DFCA
:107FE0001150E9F7F2DF1F91089580E0E8DFEE27F6
:047FF000FF270994CA
:027FFE00040479
:0400000300007E007B
:00000001FF
